{
  "_format": "hh-sol-artifact-1",
  "contractName": "InvoiceChain",
  "sourceName": "contracts/InvoisChain.sol",
  "abi": [
    {
      "inputs": [],
      "stateMutability": "nonpayable",
      "type": "constructor"
    },
    {
      "inputs": [],
      "name": "InsufficientBalanace",
      "type": "error"
    },
    {
      "inputs": [],
      "name": "InvalidInvoiceId",
      "type": "error"
    },
    {
      "inputs": [],
      "name": "InvoicePaidForAlready",
      "type": "error"
    },
    {
      "inputs": [],
      "name": "ReentrancyGuardReentrantCall",
      "type": "error"
    },
    {
      "inputs": [],
      "name": "ZeroAddressDetected",
      "type": "error"
    },
    {
      "anonymous": false,
      "inputs": [
        {
          "indexed": true,
          "internalType": "address",
          "name": "_add",
          "type": "address"
        },
        {
          "indexed": false,
          "internalType": "uint256",
          "name": "_amt",
          "type": "uint256"
        },
        {
          "indexed": false,
          "internalType": "uint256",
          "name": "_invoiceId",
          "type": "uint256"
        }
      ],
      "name": "InvoiceCreatedSuccessfully",
      "type": "event"
    },
    {
      "anonymous": false,
      "inputs": [
        {
          "indexed": true,
          "internalType": "address",
          "name": "_add",
          "type": "address"
        },
        {
          "indexed": false,
          "internalType": "uint256",
          "name": "_amt",
          "type": "uint256"
        },
        {
          "indexed": false,
          "internalType": "uint256",
          "name": "_invoiceId",
          "type": "uint256"
        }
      ],
      "name": "PaymentSuccessful",
      "type": "event"
    },
    {
      "anonymous": false,
      "inputs": [],
      "name": "UserCreatedSuccessfully",
      "type": "event"
    },
    {
      "inputs": [
        {
          "internalType": "string",
          "name": "_name",
          "type": "string"
        },
        {
          "internalType": "string",
          "name": "_email",
          "type": "string"
        },
        {
          "internalType": "string",
          "name": "_organization",
          "type": "string"
        },
        {
          "internalType": "string",
          "name": "_phone",
          "type": "string"
        },
        {
          "internalType": "address",
          "name": "_walletAddress",
          "type": "address"
        }
      ],
      "name": "createCustomer",
      "outputs": [],
      "stateMutability": "nonpayable",
      "type": "function"
    },
    {
      "inputs": [
        {
          "internalType": "address",
          "name": "_buyerAddress",
          "type": "address"
        },
        {
          "internalType": "string[]",
          "name": "_goods",
          "type": "string[]"
        },
        {
          "internalType": "uint256",
          "name": "_totalAmt",
          "type": "uint256"
        },
        {
          "internalType": "address",
          "name": "_tokenAddress",
          "type": "address"
        }
      ],
      "name": "createInvoice",
      "outputs": [],
      "stateMutability": "nonpayable",
      "type": "function"
    },
    {
      "inputs": [
        {
          "internalType": "uint256",
          "name": "",
          "type": "uint256"
        }
      ],
      "name": "customers",
      "outputs": [
        {
          "internalType": "string",
          "name": "customerName",
          "type": "string"
        },
        {
          "internalType": "string",
          "name": "customerEmail",
          "type": "string"
        },
        {
          "internalType": "string",
          "name": "organization",
          "type": "string"
        },
        {
          "internalType": "string",
          "name": "phoneNumber",
          "type": "string"
        },
        {
          "internalType": "address",
          "name": "walletAddress",
          "type": "address"
        },
        {
          "internalType": "uint256",
          "name": "customerId",
          "type": "uint256"
        },
        {
          "internalType": "bool",
          "name": "isCreated",
          "type": "bool"
        }
      ],
      "stateMutability": "view",
      "type": "function"
    },
    {
      "inputs": [],
      "name": "generateAllInvoices",
      "outputs": [
        {
          "components": [
            {
              "internalType": "address",
              "name": "buyer",
              "type": "address"
            },
            {
              "internalType": "address",
              "name": "seller",
              "type": "address"
            },
            {
              "internalType": "string[]",
              "name": "goods",
              "type": "string[]"
            },
            {
              "internalType": "uint256",
              "name": "date",
              "type": "uint256"
            },
            {
              "internalType": "uint256",
              "name": "amount",
              "type": "uint256"
            },
            {
              "internalType": "bool",
              "name": "isPaid",
              "type": "bool"
            },
            {
              "internalType": "address",
              "name": "tokenAddress",
              "type": "address"
            },
            {
              "internalType": "uint256",
              "name": "amountPaidInEther",
              "type": "uint256"
            },
            {
              "internalType": "uint256",
              "name": "invoiceId",
              "type": "uint256"
            }
          ],
          "internalType": "struct InvoiceChain.Invoice[]",
          "name": "",
          "type": "tuple[]"
        }
      ],
      "stateMutability": "view",
      "type": "function"
    },
    {
      "inputs": [
        {
          "internalType": "uint256",
          "name": "_invoiceId",
          "type": "uint256"
        }
      ],
      "name": "generateInvoice",
      "outputs": [
        {
          "components": [
            {
              "internalType": "address",
              "name": "buyer",
              "type": "address"
            },
            {
              "internalType": "address",
              "name": "seller",
              "type": "address"
            },
            {
              "internalType": "string[]",
              "name": "goods",
              "type": "string[]"
            },
            {
              "internalType": "uint256",
              "name": "date",
              "type": "uint256"
            },
            {
              "internalType": "uint256",
              "name": "amount",
              "type": "uint256"
            },
            {
              "internalType": "bool",
              "name": "isPaid",
              "type": "bool"
            },
            {
              "internalType": "address",
              "name": "tokenAddress",
              "type": "address"
            },
            {
              "internalType": "uint256",
              "name": "amountPaidInEther",
              "type": "uint256"
            },
            {
              "internalType": "uint256",
              "name": "invoiceId",
              "type": "uint256"
            }
          ],
          "internalType": "struct InvoiceChain.Invoice",
          "name": "",
          "type": "tuple"
        }
      ],
      "stateMutability": "view",
      "type": "function"
    },
    {
      "inputs": [
        {
          "internalType": "uint256",
          "name": "",
          "type": "uint256"
        }
      ],
      "name": "invoices",
      "outputs": [
        {
          "internalType": "address",
          "name": "buyer",
          "type": "address"
        },
        {
          "internalType": "address",
          "name": "seller",
          "type": "address"
        },
        {
          "internalType": "uint256",
          "name": "date",
          "type": "uint256"
        },
        {
          "internalType": "uint256",
          "name": "amount",
          "type": "uint256"
        },
        {
          "internalType": "bool",
          "name": "isPaid",
          "type": "bool"
        },
        {
          "internalType": "address",
          "name": "tokenAddress",
          "type": "address"
        },
        {
          "internalType": "uint256",
          "name": "amountPaidInEther",
          "type": "uint256"
        },
        {
          "internalType": "uint256",
          "name": "invoiceId",
          "type": "uint256"
        }
      ],
      "stateMutability": "view",
      "type": "function"
    },
    {
      "inputs": [
        {
          "internalType": "uint256",
          "name": "_invoiceId",
          "type": "uint256"
        }
      ],
      "name": "payInvoice",
      "outputs": [],
      "stateMutability": "nonpayable",
      "type": "function"
    },
    {
      "inputs": [
        {
          "internalType": "uint256",
          "name": "_invoiceId",
          "type": "uint256"
        }
      ],
      "name": "payWithEther",
      "outputs": [],
      "stateMutability": "payable",
      "type": "function"
    },
    {
      "inputs": [
        {
          "internalType": "uint256",
          "name": "_invoiceId",
          "type": "uint256"
        }
      ],
      "name": "sendEtherToSeller",
      "outputs": [],
      "stateMutability": "nonpayable",
      "type": "function"
    }
  ],
  "bytecode": "0x608060405234801561001057600080fd5b506001600081905550612f78806100286000396000f3fe6080604052600436106100865760003560e01c8063501dba0d11610059578063501dba0d1461013f578063741be2e01461017c578063ac60a6cd146101a5578063c0abda2a146101ce578063e31e808a1461021157610086565b80630b2f8f2f1461008b57806319e31e7d146100b45780634be2a1a5146100d05780634e6d1405146100fb575b600080fd5b34801561009757600080fd5b506100b260048036038101906100ad9190611f53565b61023a565b005b6100ce60048036038101906100c99190612074565b610513565b005b3480156100dc57600080fd5b506100e561075e565b6040516100f291906123a2565b60405180910390f35b34801561010757600080fd5b50610122600480360381019061011d9190612074565b6109dc565b6040516101369897969594939291906123f1565b60405180910390f35b34801561014b57600080fd5b5061016660048036038101906101619190612074565b610a91565b6040516101739190612534565b60405180910390f35b34801561018857600080fd5b506101a3600480360381019061019e919061263c565b610cdd565b005b3480156101b157600080fd5b506101cc60048036038101906101c79190612074565b6110b7565b005b3480156101da57600080fd5b506101f560048036038101906101f09190612074565b6113a4565b6040516102089796959493929190612709565b60405180910390f35b34801561021d57600080fd5b5061023860048036038101906102339190612074565b611633565b005b600060056000815461024b906127c3565b91905081905590506006600082815260200190815260200160002060060160009054906101000a900460ff16156102b7576040517f08c379a00000000000000000000000000000000000000000000000000000000081526004016102ae90612857565b60405180910390fd5b60006040518060e001604052808881526020018781526020018681526020018581526020018473ffffffffffffffffffffffffffffffffffffffff168152602001838152602001600115158152509050806006600084815260200190815260200160002060008201518160000190816103309190612a83565b5060208201518160010190816103469190612a83565b50604082015181600201908161035c9190612a83565b5060608201518160030190816103729190612a83565b5060808201518160040160006101000a81548173ffffffffffffffffffffffffffffffffffffffff021916908373ffffffffffffffffffffffffffffffffffffffff16021790555060a0820151816005015560c08201518160060160006101000a81548160ff021916908315150217905550905050600481908060018154018082558091505060019003906000526020600020906007020160009091909190915060008201518160000190816104289190612a83565b50602082015181600101908161043e9190612a83565b5060408201518160020190816104549190612a83565b50606082015181600301908161046a9190612a83565b5060808201518160040160006101000a81548173ffffffffffffffffffffffffffffffffffffffff021916908373ffffffffffffffffffffffffffffffffffffffff16021790555060a0820151816005015560c08201518160060160006101000a81548160ff02191690831515021790555050507f6b8b731939a35203e63f9baf28946468c01637da22c75f6f26969c71cfec756d60405160405180910390a150505050505050565b61051b611961565b610524336119a7565b61052d81611a10565b60006001600083815260200190815260200160002090503373ffffffffffffffffffffffffffffffffffffffff168160000160009054906101000a900473ffffffffffffffffffffffffffffffffffffffff1673ffffffffffffffffffffffffffffffffffffffff16146105d6576040517f08c379a00000000000000000000000000000000000000000000000000000000081526004016105cd90612ba1565b60405180910390fd5b8181600701541461061c576040517f08c379a000000000000000000000000000000000000000000000000000000000815260040161061390612ba1565b60405180910390fd5b80600401543414610662576040517f08c379a000000000000000000000000000000000000000000000000000000000815260040161065990612c0d565b60405180910390fd5b8060050160009054906101000a900460ff16156106b4576040517f08c379a00000000000000000000000000000000000000000000000000000000081526004016106ab90612c79565b60405180910390fd5b34816006018190555060018160050160006101000a81548160ff0219169083151502179055508060010160009054906101000a900473ffffffffffffffffffffffffffffffffffffffff1673ffffffffffffffffffffffffffffffffffffffff167fa056c95b265afa858f1320d1f0aad1aa914254d7fc80f83a8a0132bf2f29edbe82600401548460405161074a929190612c99565b60405180910390a25061075b611aa8565b50565b60606002805480602002602001604051908101604052809291908181526020016000905b828210156109d35783829060005260206000209060080201604051806101200160405290816000820160009054906101000a900473ffffffffffffffffffffffffffffffffffffffff1673ffffffffffffffffffffffffffffffffffffffff1673ffffffffffffffffffffffffffffffffffffffff1681526020016001820160009054906101000a900473ffffffffffffffffffffffffffffffffffffffff1673ffffffffffffffffffffffffffffffffffffffff1673ffffffffffffffffffffffffffffffffffffffff16815260200160028201805480602002602001604051908101604052809291908181526020016000905b82821015610923578382906000526020600020018054610896906128a6565b80601f01602080910402602001604051908101604052809291908181526020018280546108c2906128a6565b801561090f5780601f106108e45761010080835404028352916020019161090f565b820191906000526020600020905b8154815290600101906020018083116108f257829003601f168201915b505050505081526020019060010190610877565b50505050815260200160038201548152602001600482015481526020016005820160009054906101000a900460ff161515151581526020016005820160019054906101000a900473ffffffffffffffffffffffffffffffffffffffff1673ffffffffffffffffffffffffffffffffffffffff1673ffffffffffffffffffffffffffffffffffffffff1681526020016006820154815260200160078201548152505081526020019060010190610782565b50505050905090565b60016020528060005260406000206000915090508060000160009054906101000a900473ffffffffffffffffffffffffffffffffffffffff16908060010160009054906101000a900473ffffffffffffffffffffffffffffffffffffffff16908060030154908060040154908060050160009054906101000a900460ff16908060050160019054906101000a900473ffffffffffffffffffffffffffffffffffffffff16908060060154908060070154905088565b610a99611c31565b60016000838152602001908152602001600020604051806101200160405290816000820160009054906101000a900473ffffffffffffffffffffffffffffffffffffffff1673ffffffffffffffffffffffffffffffffffffffff1673ffffffffffffffffffffffffffffffffffffffff1681526020016001820160009054906101000a900473ffffffffffffffffffffffffffffffffffffffff1673ffffffffffffffffffffffffffffffffffffffff1673ffffffffffffffffffffffffffffffffffffffff16815260200160028201805480602002602001604051908101604052809291908181526020016000905b82821015610c35578382906000526020600020018054610ba8906128a6565b80601f0160208091040260200160405190810160405280929190818152602001828054610bd4906128a6565b8015610c215780601f10610bf657610100808354040283529160200191610c21565b820191906000526020600020905b815481529060010190602001808311610c0457829003601f168201915b505050505081526020019060010190610b89565b50505050815260200160038201548152602001600482015481526020016005820160009054906101000a900460ff161515151581526020016005820160019054906101000a900473ffffffffffffffffffffffffffffffffffffffff1673ffffffffffffffffffffffffffffffffffffffff1673ffffffffffffffffffffffffffffffffffffffff168152602001600682015481526020016007820154815250509050919050565b610ce6336119a7565b610cef816119a7565b610cf8846119a7565b6000600360008154610d09906127c3565b919050819055905060006040518061012001604052808773ffffffffffffffffffffffffffffffffffffffff1681526020013373ffffffffffffffffffffffffffffffffffffffff1681526020018681526020014281526020018581526020016000151581526020018473ffffffffffffffffffffffffffffffffffffffff16815260200160008152602001838152509050806001600084815260200190815260200160002060008201518160000160006101000a81548173ffffffffffffffffffffffffffffffffffffffff021916908373ffffffffffffffffffffffffffffffffffffffff16021790555060208201518160010160006101000a81548173ffffffffffffffffffffffffffffffffffffffff021916908373ffffffffffffffffffffffffffffffffffffffff1602179055506040820151816002019080519060200190610e59929190611cc1565b50606082015181600301556080820151816004015560a08201518160050160006101000a81548160ff02191690831515021790555060c08201518160050160016101000a81548173ffffffffffffffffffffffffffffffffffffffff021916908373ffffffffffffffffffffffffffffffffffffffff16021790555060e082015181600601556101008201518160070155905050600281908060018154018082558091505060019003906000526020600020906008020160009091909190915060008201518160000160006101000a81548173ffffffffffffffffffffffffffffffffffffffff021916908373ffffffffffffffffffffffffffffffffffffffff16021790555060208201518160010160006101000a81548173ffffffffffffffffffffffffffffffffffffffff021916908373ffffffffffffffffffffffffffffffffffffffff1602179055506040820151816002019080519060200190610fc3929190611cc1565b50606082015181600301556080820151816004015560a08201518160050160006101000a81548160ff02191690831515021790555060c08201518160050160016101000a81548173ffffffffffffffffffffffffffffffffffffffff021916908373ffffffffffffffffffffffffffffffffffffffff16021790555060e08201518160060155610100820151816007015550508573ffffffffffffffffffffffffffffffffffffffff167f232e818cf37cdab96d8db5abf0030846a8bc8818eb34b2bca16a0dd958e6229e82608001518361010001516040516110a7929190612c99565b60405180910390a2505050505050565b6110bf611961565b6110c8336119a7565b6110d181611a10565b60008111611114576040517f08c379a000000000000000000000000000000000000000000000000000000000815260040161110b90612ba1565b60405180910390fd5b60006001600083815260200190815260200160002090503373ffffffffffffffffffffffffffffffffffffffff168160000160009054906101000a900473ffffffffffffffffffffffffffffffffffffffff1673ffffffffffffffffffffffffffffffffffffffff16146111bd576040517f08c379a00000000000000000000000000000000000000000000000000000000081526004016111b490612ba1565b60405180910390fd5b81816007015414611203576040517f08c379a00000000000000000000000000000000000000000000000000000000081526004016111fa90612ba1565b60405180910390fd5b6112368160050160019054906101000a900473ffffffffffffffffffffffffffffffffffffffff16338360040154611ab2565b8060050160019054906101000a900473ffffffffffffffffffffffffffffffffffffffff1673ffffffffffffffffffffffffffffffffffffffff166323b872dd338360010160009054906101000a900473ffffffffffffffffffffffffffffffffffffffff1684600401546040518463ffffffff1660e01b81526004016112bf93929190612cc2565b6020604051808303816000875af11580156112de573d6000803e3d6000fd5b505050506040513d601f19601f820116820180604052508101906113029190612d25565b5060018160050160006101000a81548160ff0219169083151502179055508060010160009054906101000a900473ffffffffffffffffffffffffffffffffffffffff1673ffffffffffffffffffffffffffffffffffffffff167fa056c95b265afa858f1320d1f0aad1aa914254d7fc80f83a8a0132bf2f29edbe826004015484604051611390929190612c99565b60405180910390a2506113a1611aa8565b50565b60066020528060005260406000206000915090508060000180546113c7906128a6565b80601f01602080910402602001604051908101604052809291908181526020018280546113f3906128a6565b80156114405780601f1061141557610100808354040283529160200191611440565b820191906000526020600020905b81548152906001019060200180831161142357829003601f168201915b505050505090806001018054611455906128a6565b80601f0160208091040260200160405190810160405280929190818152602001828054611481906128a6565b80156114ce5780601f106114a3576101008083540402835291602001916114ce565b820191906000526020600020905b8154815290600101906020018083116114b157829003601f168201915b5050505050908060020180546114e3906128a6565b80601f016020809104026020016040519081016040528092919081815260200182805461150f906128a6565b801561155c5780601f106115315761010080835404028352916020019161155c565b820191906000526020600020905b81548152906001019060200180831161153f57829003601f168201915b505050505090806003018054611571906128a6565b80601f016020809104026020016040519081016040528092919081815260200182805461159d906128a6565b80156115ea5780601f106115bf576101008083540402835291602001916115ea565b820191906000526020600020905b8154815290600101906020018083116115cd57829003601f168201915b5050505050908060040160009054906101000a900473ffffffffffffffffffffffffffffffffffffffff16908060050154908060060160009054906101000a900460ff16905087565b61163b611961565b611644336119a7565b61164d81611a10565b60006001600083815260200190815260200160002090503373ffffffffffffffffffffffffffffffffffffffff168160010160009054906101000a900473ffffffffffffffffffffffffffffffffffffffff1673ffffffffffffffffffffffffffffffffffffffff16146116f6576040517f08c379a00000000000000000000000000000000000000000000000000000000081526004016116ed90612ba1565b60405180910390fd5b8181600701541461173c576040517f08c379a000000000000000000000000000000000000000000000000000000000815260040161173390612ba1565b60405180910390fd5b8060010160009054906101000a900473ffffffffffffffffffffffffffffffffffffffff1673ffffffffffffffffffffffffffffffffffffffff163373ffffffffffffffffffffffffffffffffffffffff16146117ce576040517f08c379a00000000000000000000000000000000000000000000000000000000081526004016117c590612dc4565b60405180910390fd5b8060050160009054906101000a900460ff1661181f576040517f08c379a000000000000000000000000000000000000000000000000000000000815260040161181690612e30565b60405180910390fd5b6000816006015490508047101561186b576040517f08c379a000000000000000000000000000000000000000000000000000000000815260040161186290612e9c565b60405180910390fd5b600082600601819055508160010160009054906101000a900473ffffffffffffffffffffffffffffffffffffffff1673ffffffffffffffffffffffffffffffffffffffff166108fc829081150290604051600060405180830381858888f193505050501580156118df573d6000803e3d6000fd5b508160010160009054906101000a900473ffffffffffffffffffffffffffffffffffffffff1673ffffffffffffffffffffffffffffffffffffffff167fa056c95b265afa858f1320d1f0aad1aa914254d7fc80f83a8a0132bf2f29edbe828560405161194c929190612c99565b60405180910390a2505061195e611aa8565b50565b60026000540361199d576040517f3ee5aeb500000000000000000000000000000000000000000000000000000000815260040160405180910390fd5b6002600081905550565b600073ffffffffffffffffffffffffffffffffffffffff168173ffffffffffffffffffffffffffffffffffffffff1603611a0d576040517f510fbaea00000000000000000000000000000000000000000000000000000000815260040160405180910390fd5b50565b60008103611a4a576040517f15a6bc4300000000000000000000000000000000000000000000000000000000815260040160405180910390fd5b6001600082815260200190815260200160002060050160009054906101000a900460ff1615611aa5576040517f688e5caa00000000000000000000000000000000000000000000000000000000815260040160405180910390fd5b50565b6001600081905550565b600083905060008173ffffffffffffffffffffffffffffffffffffffff166370a08231856040518263ffffffff1660e01b8152600401611af29190612ebc565b602060405180830381865afa158015611b0f573d6000803e3d6000fd5b505050506040513d601f19601f82011682018060405250810190611b339190612eec565b905060008273ffffffffffffffffffffffffffffffffffffffff1663dd62ed3e86306040518363ffffffff1660e01b8152600401611b72929190612f19565b602060405180830381865afa158015611b8f573d6000803e3d6000fd5b505050506040513d601f19601f82011682018060405250810190611bb39190612eec565b905083821015611bef576040517f08f052dc00000000000000000000000000000000000000000000000000000000815260040160405180910390fd5b83811015611c29576040517f08f052dc00000000000000000000000000000000000000000000000000000000815260040160405180910390fd5b505050505050565b604051806101200160405280600073ffffffffffffffffffffffffffffffffffffffff168152602001600073ffffffffffffffffffffffffffffffffffffffff168152602001606081526020016000815260200160008152602001600015158152602001600073ffffffffffffffffffffffffffffffffffffffff16815260200160008152602001600081525090565b828054828255906000526020600020908101928215611d09579160200282015b82811115611d08578251829081611cf89190612a83565b5091602001919060010190611ce1565b5b509050611d169190611d1a565b5090565b5b80821115611d3a5760008181611d319190611d3e565b50600101611d1b565b5090565b508054611d4a906128a6565b6000825580601f10611d5c5750611d7b565b601f016020900490600052602060002090810190611d7a9190611d7e565b5b50565b5b80821115611d97576000816000905550600101611d7f565b5090565b6000604051905090565b600080fd5b600080fd5b600080fd5b600080fd5b6000601f19601f8301169050919050565b7f4e487b7100000000000000000000000000000000000000000000000000000000600052604160045260246000fd5b611e0282611db9565b810181811067ffffffffffffffff82111715611e2157611e20611dca565b5b80604052505050565b6000611e34611d9b565b9050611e408282611df9565b919050565b600067ffffffffffffffff821115611e6057611e5f611dca565b5b611e6982611db9565b9050602081019050919050565b82818337600083830152505050565b6000611e98611e9384611e45565b611e2a565b905082815260208101848484011115611eb457611eb3611db4565b5b611ebf848285611e76565b509392505050565b600082601f830112611edc57611edb611daf565b5b8135611eec848260208601611e85565b91505092915050565b600073ffffffffffffffffffffffffffffffffffffffff82169050919050565b6000611f2082611ef5565b9050919050565b611f3081611f15565b8114611f3b57600080fd5b50565b600081359050611f4d81611f27565b92915050565b600080600080600060a08688031215611f6f57611f6e611da5565b5b600086013567ffffffffffffffff811115611f8d57611f8c611daa565b5b611f9988828901611ec7565b955050602086013567ffffffffffffffff811115611fba57611fb9611daa565b5b611fc688828901611ec7565b945050604086013567ffffffffffffffff811115611fe757611fe6611daa565b5b611ff388828901611ec7565b935050606086013567ffffffffffffffff81111561201457612013611daa565b5b61202088828901611ec7565b925050608061203188828901611f3e565b9150509295509295909350565b6000819050919050565b6120518161203e565b811461205c57600080fd5b50565b60008135905061206e81612048565b92915050565b60006020828403121561208a57612089611da5565b5b60006120988482850161205f565b91505092915050565b600081519050919050565b600082825260208201905092915050565b6000819050602082019050919050565b6120d681611f15565b82525050565b600081519050919050565b600082825260208201905092915050565b6000819050602082019050919050565b600081519050919050565b600082825260208201905092915050565b60005b83811015612142578082015181840152602081019050612127565b60008484015250505050565b600061215982612108565b6121638185612113565b9350612173818560208601612124565b61217c81611db9565b840191505092915050565b6000612193838361214e565b905092915050565b6000602082019050919050565b60006121b3826120dc565b6121bd81856120e7565b9350836020820285016121cf856120f8565b8060005b8581101561220b57848403895281516121ec8582612187565b94506121f78361219b565b925060208a019950506001810190506121d3565b50829750879550505050505092915050565b6122268161203e565b82525050565b60008115159050919050565b6122418161222c565b82525050565b60006101208301600083015161226060008601826120cd565b50602083015161227360208601826120cd565b506040830151848203604086015261228b82826121a8565b91505060608301516122a0606086018261221d565b5060808301516122b3608086018261221d565b5060a08301516122c660a0860182612238565b5060c08301516122d960c08601826120cd565b5060e08301516122ec60e086018261221d565b5061010083015161230161010086018261221d565b508091505092915050565b60006123188383612247565b905092915050565b6000602082019050919050565b6000612338826120a1565b61234281856120ac565b935083602082028501612354856120bd565b8060005b858110156123905784840389528151612371858261230c565b945061237c83612320565b925060208a01995050600181019050612358565b50829750879550505050505092915050565b600060208201905081810360008301526123bc818461232d565b905092915050565b6123cd81611f15565b82525050565b6123dc8161203e565b82525050565b6123eb8161222c565b82525050565b600061010082019050612407600083018b6123c4565b612414602083018a6123c4565b61242160408301896123d3565b61242e60608301886123d3565b61243b60808301876123e2565b61244860a08301866123c4565b61245560c08301856123d3565b61246260e08301846123d3565b9998505050505050505050565b60006101208301600083015161248860008601826120cd565b50602083015161249b60208601826120cd565b50604083015184820360408601526124b382826121a8565b91505060608301516124c8606086018261221d565b5060808301516124db608086018261221d565b5060a08301516124ee60a0860182612238565b5060c083015161250160c08601826120cd565b5060e083015161251460e086018261221d565b5061010083015161252961010086018261221d565b508091505092915050565b6000602082019050818103600083015261254e818461246f565b905092915050565b600067ffffffffffffffff82111561257157612570611dca565b5b602082029050602081019050919050565b600080fd5b600061259a61259584612556565b611e2a565b905080838252602082019050602084028301858111156125bd576125bc612582565b5b835b8181101561260457803567ffffffffffffffff8111156125e2576125e1611daf565b5b8086016125ef8982611ec7565b855260208501945050506020810190506125bf565b5050509392505050565b600082601f83011261262357612622611daf565b5b8135612633848260208601612587565b91505092915050565b6000806000806080858703121561265657612655611da5565b5b600061266487828801611f3e565b945050602085013567ffffffffffffffff81111561268557612684611daa565b5b6126918782880161260e565b93505060406126a28782880161205f565b92505060606126b387828801611f3e565b91505092959194509250565b600082825260208201905092915050565b60006126db82612108565b6126e581856126bf565b93506126f5818560208601612124565b6126fe81611db9565b840191505092915050565b600060e0820190508181036000830152612723818a6126d0565b9050818103602083015261273781896126d0565b9050818103604083015261274b81886126d0565b9050818103606083015261275f81876126d0565b905061276e60808301866123c4565b61277b60a08301856123d3565b61278860c08301846123e2565b98975050505050505050565b7f4e487b7100000000000000000000000000000000000000000000000000000000600052601160045260246000fd5b60006127ce8261203e565b91507fffffffffffffffffffffffffffffffffffffffffffffffffffffffffffffffff8203612800576127ff612794565b5b600182019050919050565b7f437573746f6d6572204372656174656420416c72656164790000000000000000600082015250565b60006128416018836126bf565b915061284c8261280b565b602082019050919050565b6000602082019050818103600083015261287081612834565b9050919050565b7f4e487b7100000000000000000000000000000000000000000000000000000000600052602260045260246000fd5b600060028204905060018216806128be57607f821691505b6020821081036128d1576128d0612877565b5b50919050565b60008190508160005260206000209050919050565b60006020601f8301049050919050565b600082821b905092915050565b6000600883026129397fffffffffffffffffffffffffffffffffffffffffffffffffffffffffffffffff826128fc565b61294386836128fc565b95508019841693508086168417925050509392505050565b6000819050919050565b600061298061297b6129768461203e565b61295b565b61203e565b9050919050565b6000819050919050565b61299a83612965565b6129ae6129a682612987565b848454612909565b825550505050565b600090565b6129c36129b6565b6129ce818484612991565b505050565b5b818110156129f2576129e76000826129bb565b6001810190506129d4565b5050565b601f821115612a3757612a08816128d7565b612a11846128ec565b81016020851015612a20578190505b612a34612a2c856128ec565b8301826129d3565b50505b505050565b600082821c905092915050565b6000612a5a60001984600802612a3c565b1980831691505092915050565b6000612a738383612a49565b9150826002028217905092915050565b612a8c82612108565b67ffffffffffffffff811115612aa557612aa4611dca565b5b612aaf82546128a6565b612aba8282856129f6565b600060209050601f831160018114612aed5760008415612adb578287015190505b612ae58582612a67565b865550612b4d565b601f198416612afb866128d7565b60005b82811015612b2357848901518255600182019150602085019450602081019050612afe565b86831015612b405784890151612b3c601f891682612a49565b8355505b6001600288020188555050505b505050505050565b7f496e76616c696420496400000000000000000000000000000000000000000000600082015250565b6000612b8b600a836126bf565b9150612b9682612b55565b602082019050919050565b60006020820190508181036000830152612bba81612b7e565b9050919050565b7f496e636f727265637420457468657220616d6f756e742073656e740000000000600082015250565b6000612bf7601b836126bf565b9150612c0282612bc1565b602082019050919050565b60006020820190508181036000830152612c2681612bea565b9050919050565b7f496e766f69636520616c72656164792070616964000000000000000000000000600082015250565b6000612c636014836126bf565b9150612c6e82612c2d565b602082019050919050565b60006020820190508181036000830152612c9281612c56565b9050919050565b6000604082019050612cae60008301856123d3565b612cbb60208301846123d3565b9392505050565b6000606082019050612cd760008301866123c4565b612ce460208301856123c4565b612cf160408301846123d3565b949350505050565b612d028161222c565b8114612d0d57600080fd5b50565b600081519050612d1f81612cf9565b92915050565b600060208284031215612d3b57612d3a611da5565b5b6000612d4984828501612d10565b91505092915050565b7f4f6e6c79207468652073656c6c65722063616e2077697468647261772066756e60008201527f6473000000000000000000000000000000000000000000000000000000000000602082015250565b6000612dae6022836126bf565b9150612db982612d52565b604082019050919050565b60006020820190508181036000830152612ddd81612da1565b9050919050565b7f496e766f696365206e6f74207061696400000000000000000000000000000000600082015250565b6000612e1a6010836126bf565b9150612e2582612de4565b602082019050919050565b60006020820190508181036000830152612e4981612e0d565b9050919050565b7f496e73756666696369656e7420636f6e74726163742062616c616e6365000000600082015250565b6000612e86601d836126bf565b9150612e9182612e50565b602082019050919050565b60006020820190508181036000830152612eb581612e79565b9050919050565b6000602082019050612ed160008301846123c4565b92915050565b600081519050612ee681612048565b92915050565b600060208284031215612f0257612f01611da5565b5b6000612f1084828501612ed7565b91505092915050565b6000604082019050612f2e60008301856123c4565b612f3b60208301846123c4565b939250505056fea264697066735822122046a7c89a060f5480afc6081c627b74cfe81e23af0c9ce9ce2a0d442307df0ab064736f6c63430008180033",
  "linkReferences": {},
  "deployedLinkReferences": {}
}